:100614004261644170706C652121004279207375D8
:03062400797500E5
:0E062700410041004300420100454100000037
:10047D00900042E0FBA3E0FAA3E0F974017583005C
:10048D0005826B7008E965827003EA65837B0170F4
:10049D00177A0079451203C89000427401F0A374D5
:1004AD0000F0A37401F080157A0079011203C89051
:1004BD0000427401F0A37400F0A37445F002051519
:10058B001206001205AD7BFF7A0679147D077F01F9
:10059B001204267BFF7A06791F7D077F0212042641
:0205AB0080FED0
:030023000201C413
:1001C400C0E0C0F0C083C082C0D075D000C000C001
:0D01D40001C002C003C004C005C006C00782
:1001E100309868C298900085E599F0E0FFB4FF0B64
:1001F100900000E4F0900041F08050EFB4FE1290C6
:100201000000E06440704490004104F012047D80DD
:100211003A900085E0FD900000E0131313541F7520
:10022100F008A4FF900042E0FBA3E0FAA3E02FF95D
:10023100EA35F0FA900000E054077E0029F9EE3A21
:0B024100FAED12006C900000E004F0E9
:10024C00D007D006D005D004D003D002D001D00006
:0B025C00D0D0D082D083D0F0D0E032B0
:06000300FFE02F4480FF26
:10000900C2A6C2A58F80D2A77F017E001205EAC2CF
:08001900A77F017E000205EA49
:0405CE00ED2430FFE9
:1005D200D2A6C2A58F80D2A77F017E001205EAC2F1
:0805E200A77F017E000205EA7B
:100600007F381200097F0C1200097F061200097F53
:0406100001020009DA
:10055D00900087EDF0A3EBF0900086EFF0BF010562
:10056D00A3E014800B900086E0B4020AA3E0243FC0
:0E057D004480FF120009900088E0FF0205D2C2
:1004260090008CEDF0A3EBF0A3EAF0A3E9F09000C6
:030436008BEFF059
:10043900E4900090F0BF010790008CE014800B90CD
:10044900008BE0B4020AA3E0243F4480FF120009B4
:1004590090008DE0FBA3E0FAA3E0F9A3E0F5827533
:10046900830012003FFF600B1205D2900090E00458
:03047900F080DD33
:01047C00225D
:10036700900091EFF0A3EDF0A3EAF0A3EBF090007B
:1003770095E0FF14F0EF6048900091E0B40105A309
:10038700E014800B900091E0B4020AA3E0243F90B0
:100397000095120003900093E0FEA3E0FF7C007D30
:1003A7000A12007E1205CE900093E0FEA3E0FF7CC8
:1003B700007D0A12007E900093EEF0A3EFF080AE6E
:0103C7002213
:10010900900097EDF0A3EAF0A3EBF0900096EFF0E2
:1001190090009AE014F0BF0107900097E014800B5B
:10012900900096E0B4020AA3E0243F4480FF120045
:1001390009C3900098E06480948050187F2D1205BF
:10014900D2900098E0FEA3E0FFC3E49FFFE49E90F5
:10015900009880607F2B1205D290009AE0FF14F07E
:10016900EF6057900096E0B4010C90009AE0FF9080
:100179000097E02F8013900096E0B4021290009A45
:10018900E0FF900097E02F24404480FF120009907F
:100199000098E0FEA3E0FF7C007D0A1200D312055F
:1001A900CE900098E0FEA3E0FF7C007D0A1200D308
:0B01B900900098EEF0A3EFF0809F2272
:0D02F30090009CEDF0A3EBF090009BEFF06D
:10030000BF0105A3E014800B90009BE0B4020AA398
:10031000E0243F4480FF1200097F301205D27F584D
:100320001205D290009DE0FFC4540FFEA3F0EFC46D
:1003300054F0A3F0E0C4540FF0EEC3940A90009E72
:10034000E05004243080022437FF1205D290009F31
:10035000E0FFC3940A5005EF2430800690009FE030
:060360002437FF1205D254
:010366002274
:1004CD009000A0EFF0A3EDF0A3EBF09000A3E0FF00
:1004DD0014F0EF60329000A0E0B40105A3E01480A9
:1004ED000B9000A0E0B4020AA3E0243F9000A312F9
:1004FD0000039000A2E054012430FF1205D29000B9
:08050D00A2E0C313F080C42238
:10051500E4FB7D037F0112055D7B017D047F0112F4
:10052500055D7B027D057F0112055D7B037D067FF1
:100535000112055D7B047D037F0212055D7B057D50
:10054500047F0212055D7B067D057F0212055D7B3A
:08055500077D067F0202055D2F
:0B03C800900086EBF0A3EAF0A3E9F040
:1003D3007F40120009E4900089F0E490008AF090D5
:1003E3000089E075F008A4FF900086E0FBA3E0FA23
:1003F300A3E02FF9EA35F0FA90008AE07E0029F9AC
:10040300EE3AFA120026FF1205D290008AE004F0B9
:10041300E0C3940840C9900089E004F0E0C3940865
:0204230040B8DF
:0104250022B4
:1005AD00438780759850538EBF538EFE53890F43EA
:1005BD008920758BFF758DFFC2ABD28ED2AFD2ACB9
:0105CD00220B
:080636008F993099FDC2992251
:1005EA00EF1FAC0670011E4C600B007D027CC7DC5D
:0505FA00FEDDFC80EBBA
:0105FF0022D9
:0300000002026792
:0C026700787FE4F6D8FD7581070202AE36
:10002600BB010689828A83E0225002E722BBFE02D8
:09003600E32289828A83E493220B
:10003F00BB010CE58229F582E5833AF583E0225076
:10004F0006E92582F8E622BBFE06E92582F8E222C0
:0D005F00E58229F582E5833AF583E49322DA
:10006C00BB010689828A83F0225002F722BBFE0173
:02007C00F3226D
:10007E00BC000BBE0029EF8DF084FFADF022E4CC66
:10008E00F875F008EF2FFFEE33FEEC33FCEE9DEC2F
:10009E00984005FCEE9DFE0FD5F0E9E4CEFD22ED75
:1000AE00F8F5F0EE8420D21CFEADF075F008EF2FBF
:1000BE00FFED33FD4007985006D5F0F222C398FDB0
:0500CE000FD5F0EA224D
:1000D300C2D5EC30E709B2D5E4C39DFDE49CFCEE48
:1000E30030E715B2D5E4C39FFFE49EFE12007EC342
:1000F300E49DFDE49CFC800312007E30D507C3E43D
:060103009FFFE49EFE22B6
:1002730002058BE493A3F8E493A34003F68001F211
:1002830008DFF48029E493A3F85407240CC8C3338C
:10029300C4540F4420C8834004F456800146F6DF5B
:1002A300E4800B0102040810204080900627E47EBE
:1002B300019360BCA3FF543F30E509541FFEE49350
:1002C300A360010ECF54C025E060A840B8E493A317
:1002D300FAE493A3F8E493A3C8C582C8CAC583CA42
:1002E300F0A3C8C582C8CAC583CADFE9DEE780BEFA
:0106350000C4
:00000001FF
